S0110000416C74696D657465722E737265636C
S11300000C94CB120C94E8120C94E8120C94E812A1
S11300100C94E8120C94E8120C94E8120C94E81274
S11300200C94E8120C94E8120C94E8120C94772ABD
S11300300C94E8120C94E8120C94E8120C94E81254
S11300400C94E8120C94E8120C94E8120C94E81244
S11300500C94E8120C94E8120C94E8120C94E81234
S11300600C94E8120C94E8129C2DA32D102F182E3A
S1130070102F102F102F072F102F102F102F102F8D
S1130080102F102F102F102F102F102F102F102F74
S1130090102F102F102F102F102F102F102F102F64
S11300A0102F102F102F102F102F102F102F102F54
S11300B0102F102F102F102F102F102F102F102F44
S11300C0102F102F102F102F102F102FAC2EB22EF8
S11300D0C42ED62EF32EC82E002E802E3DB1C82E4F
S11300E0002E802E9103802EBCB0802EA303C82E38
S11300F0002E802E00B05030212E59F51030212EC4
S11301006AF5802E3B03000000000819010022005C
S1130110750000100010D100B343802E00C1802E62
S113012000C1802E00C1802E00C1802E00C1802E0F
S113013000C1802E00C1802E00C1802E00C1802EFF
S113014000C1802E00C1802E00C1802E00C1802EEF
S113015000C1802E00C1802E00C1802E00C1802EDF
S113016000C1802E00C1802E00C1802E00C1802ECF
S113017000C1802E00C1802E00C1802E00C1802EBF
S113018000C1802E00C1802E00C1802E00C1802EAF
S113019000C1802E00C1802E00C1802E00C1802E9F
S11301A000C1802E00C1802E00C1802E00C1802E8F
S11301B000C1802E00C1802E00C1802E00C1802E7F
S11301C000C1E05F0000000001000000000000002A
S11301D00000000092000000000000000000000089
S11301E00000000000000819000088000000000062
S11301F0000005E0AA3805E09030FA0096004B09AB
S11302001100110002002D01D47B3B01DB7A0400B4
S11302103F7BCD6CC3048509C304ECE60C460100A6
S1130220270019009600A00001000C00F03C00011A
S11302300100030001000E00000032000500EE067C
S11302400400C80000000400A805EE060004BC0277
S1130250B30085070000000000000000000000005B
S11302600000000000000000B4000100B90001001B
S1130270980000000000000000000100800004005D
S1130280000000000000000000000000000000006A
S1130290000000000000000000000000000000005A
S11302A0000000000000000000000000000000004A
S11302B0000000000000000000000000000000003A
S11302C0000000000000000000000000000000002A
S11302D0802E00C1FD2DDE00EB00DA00000CFF0FC4
S11302E00004C0005BF5C9011EF280003FFF19F451
S11302F058F566F564F5C0F1F000E000CD01D301D6
S1130300DB01FF7FFF01E40074F7F300FA00FF3F15
S1130310CA036C3856FE44FDBC02F90600FC120206
S1130320AE0158FA9AFD7705BB02960195017F014B
S113033082018901870188018A018C018F018D0165
S113034092019101DD009F017E01DB00B60170691D
S113035026D39C071F059D000008BC0537FAA2019F
S1130360AA01A101A801A001A805B401B401CE000D
S1130370D000FC00C501FFFBB10000380030FDF5E2
S1130380FCF5CD01A0005FFF0040FF0000806D0F71
S1130390EB007FFFC2F568F7B3F1670F5B0F610FE6
S11303A0800F58F75BF7830F8600720F850FC6F135
S11303B07F0F6CF700E000FFD1F5870F8A0FFF0372
S11303C0F03F8B008E009000B9002DF5CAF5CB01EB
S11303D020F2000000000000000000000000000007
S11303E00000000000000000000000000000000009
S11303F000000000000000000000000000000000F9
S113040000000000000000000000000000000000E8
S113041000000000000000000000000000000000D8
S113042000000000000000000000000000000000C8
S113043000000000000000000000000000000000B8
S113044000000000000000000000000000000000A8
S11304500000000000000000000000000000000098
S11304600000000000000000000000000000000088
S11304700000000000000000000000000000000078
S11304800000000000000000000000000000000068
S11304900000000000000000000000000000000058
S11304A000000000000000000000000000003050C8
S11304B0982ED70E5032982EFA030030F07F002E7B
S11304C0002ED02E002E018008A2FB2F982EBA03F6
S11304D0212E1900012EEE0000B2072F012E190063
S11304E000B2032F01500352982E07CC012EDD00D9
S11304F000B2272F052E8A000552982EC7C1032E5D
S1130500E90040B2F07F082F012E190000B2042F39
S11305100030212EE900982EB4B1012E180000B24B
S1130520102F0550982E4DC30550982E5AC7982E5B
S1130530F9B4982E54B2982E67B6982E17B210308C
S1130540212E7700012EEF0000B2042F982E7AB7E7
S11305500030212EEF00012ED40004AE0B2F012E0B
S1130560DD0000B2072F0552982E8E0E00B2022F26
S11305701030212E7D00012E7D000090902EF1027E
S1130580012ED70000B2042F982E2F0E0030212EFA
S11305907B00012E7B0000B2122F012ED4000090AC
S11305A0022F982E1F0E092D982E810D012ED40096
S11305B00490022F5032982EFA030030212E7B0033
S11305C0012E7C0000B2902E0903012E7C00013123
S11305D0010800B2042F982E47CB1030212E77004B
S11305E08130012E7C00010800B2612F032E8900A6
S11305F0012ED40098BC98B805B20F58232F079049
S113060009540030372F15410441DCBE44BEDCBA26
S11306102C0161000F564A0F0C2FD14294B8C142ED
S11306201130052E6AF72CBD2FB980B20822982EFE
S1130630C3B7212D6130232ED400982EC3B70030C8
S1130640212E5AF5182DE17F5030982EFA030F52BF
S11306500750504270300D5442427E82E26F80B2A5
S11306604242052F212ED4001030982EC3B7032DFB
S11306706030212ED400012ED4000690182F012EB4
S113068076000B540752E07F982E7AC1E16F081A66
S11306904030082F212ED4002030982EAFB750328E
S11306A0982EFA03052D982E380E0030212ED400F2
S11306B00030212E7C00182D012ED40003AA012F16
S11306C0982E450E012ED4003F8003A2012F002E48
S11306D0022D982E5B0E3030982ECEB70030212E8E
S11306E07D005032982EFA03012E770000B2242F99
S11306F0982EF5CB032ED5001154010ABC848386B1
S1130700212EC901E0401352C4408240A8B952428C
S113071043BE5342040A5042E17FF0314140F26F3C
S113072025BD0808020AD07F982EA8CF06BCD16F39
S1130730E26F080A8042982E58B70030212EEE004E
S1130740212E7700212EDD00802EF4011A242200B0
S1130750802EEC011050FB7F982EF3035750FB6F53
S1130760013071541142420EFC2FC02E0142F05F41
S1130770802E00C1FD2D01000000000000000000DB
S113078000009A0134030000000000000000000093
S11307900000000000000000000000000000000055
S11307A00000000000000000000000000000000045
S11307B00000000000000000000000000000000035
S11307C00000000000000000000000000000000025
S11307D00000000000000000000000000000000015
S11307E00000000000000000000000000000000005
S11307F000000000000000002050E77FF67F063272
S11308000F2E61F5FE09C0B3042F17302F2EEF0011
S11308102D2E61F5F66FE76FE05FC82E2050E77F5D
S1130820F67F46300F2EA4F1BE0980B3062F0D2E9D
S1130830D40084AF022F16302D2E7B0086302D2E4F
S113084060F5F66FE76FE05FC82E012E77F709BCFD
S11308500FB800B21050FB7F10300B2F032E8A000C
S113086096BC9FB840B2052F032E68F79EBC9FB874
S113087040B2072F032E7E004190012F982EDC03F7
S1130880032C0030212E7E00FB6FF05FB82E205029
S1130890E07FFB7F002E2750982E3BC82950982ECE
S11308A0A7C80150982E55CCE16F2B50982EE0C963
S11308B0FB6F0030E05F212E7E00B82E73500130B4
S11308C057541142420EFC2FB82E212E59F51030E8
S11308D0C02E212E4AF19050F77FE67FD57FC47F4A
S11308E0B37FA17F907F827F7B7F982E35B700B244
S11308F0902E97B0032E8F00072E9100052EB10085
S11309003FBA9FB8012EB100A3BD4C0A052EB10019
S113091004BEBFB9CB0A4FBA22BD012EB300DC0A14
S11309202FB9032EB8000ABE9A0ACFB99BBC012E78
S113093097009FB8930A0FBC910A0FB8900A252E0E
S11309401800052EC1F52EBD2EB9012E1900313027
S11309508A040090072F012ED40004A2032F012E35
S1130960180000B20C2F19500552982E4DB7052EC1
S1130970780080901030012F212E7800252EDD0084
S1130980982E3EB700B202300130042F012E190018
S113099000B2002F2130012EEA00081A0E2F232E58
S11309A0EA0033301B500B090140175646BE4B0872
S11309B04C0A01420A8015520142002E012E1800F1
S11309C000B21F2F032EC0F5F030480847AA743038
S11309D0072E7A0061224B1A052F072E66F5BFBD3C
S11309E0BFB9C0900B2F1D562B30D242DB420104FD
S11309F0C24204BDFE808184232E7A000242023268
S1130A00252E62F5052ED6008184252ED6000231CE
S1130A10252E60F5052E8A000B50900880B20B2F0E
S1130A20052ECAF5F03E9008252ECAF5052E59F577
S1130A30E03F9008252E59F5906FA16FB36FC46FF6
S1130A40D56FE66FF76F7B6F826F705FC82EC050F3
S1130A50907FE57FD47FC37FB17FA27F877FF67FBE
S1130A607B7F002E012E60F5607F982E35B7023013
S1130A70636F1552507F627F5A2C02321A0900B3F9
S1130A80142F00B2032F092E180000910C2F437F5E
S1130A90982E97B71F50028A02320430252E64F52F
S1130AA01552506F436F4443252E60F5D908C0B2E8
S1130AB0362F982E3EB700B2062F012E190000B231
S1130AC0022F506F00900A2F012E79000090192FE9
S1130AD01030212E79000030982EDC03132D012EC6
S1130AE0C3F50CBC0FB81230100403B026252150F6
S1130AF00352982E4DB71030212EEE000230607F45
S1130B00252E7900606F0090052F0030212EEA0019
S1130B101550212E64F51552232E60F50232506FC4
S1130B200090022F0330272E7800072E60F51A0953
S1130B300091A32F19090091A02F906FA26FB16F9C
S1130B40C36FD46FE56F7B6FF66F876F405FC82EFE
S1130B50C050E77FF67F26300F2E61F52F2E7C00E4
S1130B600F2E7C00BE09A27F807F80B3D57FC47F17
S1130B70B37F917F7B7F0B2F23501A251240427F36
S1130B8074821240527F002E0040607F982E6AD6F5
S1130B908130012E7C00010800B2422F032E89000F
S1130BA0012E890097BC06BC9FB80FB80090232E75
S1130BB0D800103001302A2F032ED40044B2052F60
S1130BC047B200302D2F212E7C002B2D032EFDF556
S1130BD09EBC9FB84090142F032EFCF599BC9FB87F
S1130BE040900E2F032E49F125544A084090082FB7
S1130BF0982E35B700B21030032F5030212ED40078
S1130C00102D982EAFB70030212E7C000A2D052E12
S1130C1069F72DBD2FB980B2012F212E7D00232E1F
S1130C207C00E031212E61F5F66FE76F806FA26FD3
S1130C30B36FC46FD56F7B6F916F405FC82E6051E7
S1130C400A253688F47FEB7F00323152323013307C
S1130C50982E15CB0A253384D27F433005502D526C
S1130C60982E95C1D26F2752982ED7C72A25B086C1
S1130C70C07FD37FAF842950F16F982E4DC82A25A9
S1130C80AE8AAA88F26E2B50C16FD36FF47F982E70
S1130C90B6C8E06E00B2322F33548386F16FC37F3F
S1130CA004303030F47FD07FB27FE330C56F5640DC
S1130CB04541280803140EB408BC8240100A2F547E
S1130CC02605917F4428A37F982ED9C008B93330D4
S1130CD05309C16FD36FF46F831747406C15B26F1C
S1130CE0BE09750B90424542510E32BC0289A16F78
S1130CF07E86F47FD07FB27F0430916FD62FEB6F66
S1130D00A05EB82E032E97001BBC60509FBC0CB88D
S1130D10F07F40B2EB7F2B2F032E7F004140012E4A
S1130D20C800011A112F3758232EC8001041A07F84
S1130D3038810141D07FB17F982E64CFD06F078076
S1130D40A16F1142002EB16F01421130012EFC003F
S1130D5000A80330CB224A25012E7F003C8935525E
S1130D600554982EC4CEC16FF06F982E95CF042DE4
S1130D700130F06F982E95CFEB6FA05FB82E032E45
S1130D80B3000232F030033130508A080808CB082F
S1130D90E07F80B2F37FDB7F252F032ECA004190D2
S1130DA0042F0130232ECA00982E3F03C0B2052F12
S1130DB0032EDA0000304104232EDA00982E92B27A
S1130DC01025F06F00B2052F012EDA000230100456
S1130DD0212EDA0040B2012F232EC801DB6FE06F11
S1130DE0D05F802E95CF0130E06F982E95CF1130D3
S1130DF0232ECA00DB6FD05FB82ED0500A2533846F
S1130E005550D27FE27F038CC07FBB7F0030055AF0
S1130E1039545141A57F967F807F982ED9C00530E3
S1130E20F57F2025916F3B583D5C3B56982E67CC4F
S1130E30C16FD56F52405043C17FD57F1025982E86
S1130E40FEC91025982E74C0866F3028926F828C4C
S1130E50A56F6F52690E3954DB2F19A01530032F7B
S1130E600030212E81010A2D012E810105284236F0
S1130E70212E8101020E012F982EF30357501230B8
S1130E800140982EFEC9516F0B5C8E0E3B6F575874
S1130E900230212E9501456F2A8DD27FCB7F132FEF
S1130EA002303F50D27FA80E0E2FC06F5354020061
S1130EB05154420E103059520230012F002E032D8E
S1130EC0504242421230D27F80B2032F0030212E92
S1130ED08001122D012EC9000280052E80011130DF
S1130EE091280040252E8001100E052F012E7F0130
S1130EF00190012F982EF303002EA0410190A67FAC
S1130F00902EE3B4012E950100A8902EE3B45B5417
S1130F109580824080B202402D8C3F52967F902E65
S1130F20C2B3290E762F012EC900004081284552F4
S1130F30B330982E0FCA5D54807F002EA140727F7B
S1130F4082808240607F982EFEC91025982E74C03E
S1130F50626F05308740C0910430052F052E830150
S1130F6080B21430002F0430052EC900736F814005
S1130F70E2406904110FE1401630FE29CB40022FF4
S1130F80836F830F222F4756130F1230772F495444
S1130F90420E1230732F00910A2F012E8B0119A8D3
S1130FA002306C2F6350002E17420542682C123019
S1130FB00B25080F5030022F212E8301032D4030C2
S1130FC0212E83012B2E85015A2C123000912B25C2
S1130FD0042F635002301742172C0242982EFEC988
S1130FE01025982E74C0052EC90081845B30824080
S1130FF0372E8301020E072F5F524030624041407A
S1131000910E012F212E830105302B2E85011230E4
S1131010362C16301525817F982EFEC91025982E62
S113102074C019A21630152F052E9701806F820EF9
S1131030052F012E86010628212E86010B2D032E55
S113104087015F544E289142002E8240900E012F5A
S1131050212E88010230132C0530C06F081CA80F04
S1131060163005305B50092F02802D2E8201054277
S11310700580002E02423E80002E06420230906F10
S11310803E88014004414C28014207801025244039
S1131090004000A8F522232944427A827E884340F6
S11310A0044100ABF523DF284342D9A0142F00905C
S11310B0022FD26F81B2052F6354062890428542D5
S11310C0092C02305B500380292E7E012B2E8201D5
S11310D0054212302B2E83014582002E40407A8235
S11310E002A0082F63503B30154205423780372E4B
S11310F07E0105421230012EC900028C4040844119
S11311007A8C040F032F012E8B0119A4042F2B2E8C
S11311108201982EF303123081906152082F6542A8
S113112065424380398482880542454285420543AD
S1131130002E80410090902EE1B46554C16F804030
S113114000B243586950442F555CB7878C0F0D2E5D
S11311509601C440362F41568B0E2A2F0B52A10EF6
S11311600A2F052E8F011425982EFEC94B54020F09
S1131170695005306554152F032E8E014D5C8E0F7A
S11311803A2F052E8F01982EFEC94F54820F053039
S113119069506554302F6D521530428C45420430ED
S11311A02B2C84436B52428C002E85431530242C07
S11311B045428E0F202F0D2E8E01B10E1C2F232E93
S11311C08E011A2D0E0E172FA10F152F232E8D0110
S11311D0132D982E74C04354C20E0A2F65500480F8
S11311E00B3006820B42798041401230252E8C014F
S11311F0014205306950655484824384BE8C844026
S1131200864126299442BE8ED57F19A143400B2ED8
S11312108C018440C7415D29272945428442C27F0D
S1131220012FC0B31D2F052E940199A0012F80B367
S1131230132F80B3182FC0B3162F12400140927F92
S1131240982E74C0926F100F2030032F1030212E6F
S11312507E010A2D212E7E01072D2030212E7E01B4
S1131260032D1030212E7E01C26F012EC900BC84D3
S1131270028082400040900ED56F022F1530982EC8
S1131280F30341910530072F67503D802B2E8F01CA
S113129005420480002E0542022C00300030A26F6B
S11312A0988A864080A7052F982EF303C030212EFC
S11312B0950106251A25E26F768296405643510E13
S11312C0FB2FBB6F305FB82E012EB80001314108EF
S11312D040B22050F2300208FB7F0130102F052E5F
S11312E0CC008190E07F032F232ECC00982E55B69E
S11312F0982E1DB51025FB6FE06FE05F802E95CF13
S1131300982E95CF1030212ECC00FB6FE05FB82EC5
S113131000510558EB7F2A2589526F5A8950134191
S11313200640B3011642CB160640F3021342650E83
S1131330F52F054014302C29044208A10030902ECA
S113134052B6B388B08AB684A47FC47FB57FD57FF4
S1131350927F73300430554042408A17F3086B0182
S1131360900253B84B82ADBE717F450A0954847F05
S1131370982ED9C0A36F7B54D042A37FF27F607FA5
S11313802025716F755A7758795C7556982E67CCFD
S1131390B16F626F5042B17FB3301025982E0FCADF
S11313A0846F2029716F926FA56F76826A0E7330F5
S11313B00030D02FD26FD17FB47F982E2BB715BDBC
S11313C00BB8020AC26FC07F982E2BB715BD0BB89D
S11313D0420AC06F081741188916E118D018A17F76
S11313E027251625982E79C08B54907FB3308240E0
S11313F080900D2F7D52926F982E0FCAB26F900E6F
S1131400062F8B501430426F516F14421242014226
S1131410002E316F982E74C0416F807F982E74C057
S1131420826F10044352010F052ECB0000300430AC
S1131430212F516F43588C0E04301C2F8588416F27
S113144004418C0F0430162F8488002E04410405B7
S11314508C0E04300F2F8288316F044104058C0EEA
S11314600430082F8388002E04418C0F0430022F8F
S1131470212EAD0114300091142F032EA1014190AF
S11314800E2F032EAD0114304C28232EAD0146A09F
S1131490062F81848D5248828240212EA10142422E
S11314A05C2C0230052EAA0180B20230552F032E87
S11314B0A901926FB330982E0FCAB26F900F00300B
S11314C002304A2FA26F875291008552510E022F8B
S11314D0002E432C0230C26F7F52910E02303C2FFB
S11314E0516F8154982EFEC91025B3302125982EB2
S11314F00FCA326FC07FB3301225982E0FCA426FC5
S1131500B07FB3301225982E0FCAB26F9028835241
S1131510982EFEC9C26F900F003002301D2F052E89
S1131520A10180B212300F2F426F032EAB01910E36
S11315300230122F526F032EAC01910F02300C2F88
S1131540212EAA010A2C1230032ECB008D580889B3
S1131550414011430043252EA101D46F8F52004313
S11315603A89002E10431043610EFB2F032EA00175
S1131570111A022F0225212EA001EB6F005FB82E55
S1131580915210300230955652424B0EFC2F8D541E
S11315908882935680425342404242868354C02EEE
S11315A0C242002EA3520051524047401A25012E38
S11315B097008FBE7286FB7F0B307CBFA55010084E
S11315C0DFBA7088F8BFCB42D37F6CBBFCBBC50AC3
S11315D0907F1B7F0B43C0B2E57FB77FA67FC47F9C
S11315E0902E1CB7072ED200C0B20B2F9752012E9B
S11315F0CD00827F982EBBCC0B30372ED200826F69
S1131600906F1A2500B28B7F142FA6BD25BDB6B9E5
S11316102FB980B2D4B00C2F99549B560B300B2E9B
S1131620B100A1589B42DB426C092B2EB1008B42C6
S1131630CB42867F7384A756C30839520550727F04
S1131640637F982EC2C0E16F626FD10A012ECD0074
S1131650D56FC46F726F97529D5C982E06CD236F21
S1131660906F9952C0B204BD5440AFB94540E17F78
S11316700230062FC0B20230032F9B5C1230944319
S1131680854303BF6FBB80B3202F066F2601166FFF
S11316906E034542C090292ECE009B52142F9B5CB2
S11316A0002E93418641E304AE0780AB042F809162
S11316B00A2F866F730F072F836FC0B2042F544213
S11316C045421230042C1130022C1130113002BC6E
S11316D00FB8D27F00B20A2F012EFC00052EC701DD
S11316E0101A022F212EC701032D022C01300130C4
S11316F0B06F982E95CFD16FA06F982E95CFE26FD3
S11317009F52012ECE00824050420C2C4242113096
S1131710232ED2000130B06F982E95CFA06F0130E8
S1131720982E95CF002EFB6F005FB82E8386013074
S11317300030944024180600530E4F02F92FB82E9F
S1131740A952002E604041400DBC98BCC02E010A35
S11317500FB8AB52533C524040404B00821626B95E
S113176001B84140100897B80108C02E1130010893
S1131770438625400440D8BE2C0B221154420380DA
S11317804B0EF62FB82E9F501050AD52052ED3009D
S1131790FB7F002E13409342410EFB2F982EA5B7DA
S11317A0982E87CF012ED90000B2FB6F0B2F012E8C
S11317B069F7B13F01080130F05F232ED900212ED3
S11317C069F7802E7AB7F05FB82E012EC0F8032E89
S11317D0FCF51554AF5682080B2E69F7CB0AB158A5
S11317E08090DDBE4C085FB959228090072F0334E6
S11317F0C308F23A0A080235C0904A0A4822C02EA9
S1131800232EFCF51050FB7F982E56C7982E49C303
S11318101030FB6FF05F212ECC00212ECA00B82EB1
S1131820032ED30016B802344A0C212E2DF5C02EF7
S1131830232ED30003BC212ED500032ED50040B2A5
S11318401030212E77000130052F052ED80080900E
S1131850012F232E6FF5C02E212ED90011308108BF
S1131860012E6AF7713F23BD0108020AC02E212E02
S11318706AF730250030212E5AF51050212E7B00B6
S1131880212E7C00FB7F982EC3B74030212ED4003C
S1131890FB6FF05F0325802EAFB7802E00C1802E32
S11318A000C1802E00C1802E00C1802E00C1802E78
S11318B000C1802E00C1802E00C1802E00C1802E68
S11318C000C1802E00C1802E00C1802E00C1802E58
S11318D000C1802E00C1012E5DF708BC80AC0EBB98
S11318E0022F003041048206C0A40030112F40A909
S11318F0032F40910D2F00A70B2F80B3B358022F55
S113190090A12613202380901030012FCC0E002F9D
S11319100030B82EB550180808BC88B60D17C6BDDF
S113192056BCB758DABA04011D0A105005303225E6
S11319304503FB7FF6302125982E37CA16B59ABC8D
S113194006B880A8410A0E2F8090022F2D50480F10
S1131950092FBFA0042FBF90062FB754CA0F032F1F
S1131960002E022CB7522D52F233982ED9C0FB6FA1
S1131970F137C02E0108F05FBF56B954D040C440BF
S11319800B2EFDF3BF529042944295420530C15054
S11319900F88064004419642C54248BE73300D2E5E
S11319A0D8004FBA8442034281B3022F2B2E6FF525
S11319B0062D052E77F7BD569308252E77F7BB54D1
S11319C0252EC2F5072EFDF34230B433DA0A4C005B
S11319D0272EFDF34340D43FDC084342002E002E63
S11319E043402430DC0A43420480032EFDF34A0AB8
S11319F0232EFDF36134C02E0142002E60501A25BF
S1131A007A86E07FF37F0325C3524184DB7F333042
S1131A10982E16C21A257D82F06FE26F3225164089
S1131A209440260185408E17C4426E039542410EB0
S1131A30F42FDB6FA05FB82EB051FB7F982EE80D1A
S1131A405A25982E0F0ECB583287C47F65896B8D2B
S1131A50C55A657FE17F837FA67F747FD07FB67F81
S1131A60947F1730C752C954517F002E856F427F2F
S1131A70002E51414581424113403B8A00404B04B2
S1131A80D006C0AC857F022F02305104D3064184B6
S1131A9005305D02C916DF08D3008D02AFBCB1B9B1
S1131AA0590A656F1143A1B4524153410143347F34
S1131AB0657F2631E56FD46F982E37CA326F756F04
S1131AC083404241237F127FF63040255125982ED2
S1131AD037CA146F2005706F256F6907A26F316FC5
S1131AE00B3004429B428B425542327F40A9C36F64
S1131AF0717F0230D040C37F032F4091152F00A780
S1131B00132F00A4112F84BD982E79CA556FB75492
S1131B1054418200F33F4541CB02F630982E37CA38
S1131B20356FA46F4143032C0043A46F356F173006
S1131B30426F516F934042820041C3000343517F7F
S1131B40002E944041414C02C46FD156630E746F11
S1131B505143A57F8A2F092ED80001B3212FCB58DA
S1131B60906F1341B66FE47F002E9141144092416F
S1131B701540172E6FF5B67FD07FCB7F982E000CC3
S1131B800715C26F140B292E6FF5C3A3C18FE46F21
S1131B90D06FE62F1430052E6FF5140B292E6FF538
S1131BA0182DCD560432B56F1C0151415241C3402A
S1131BB0B57FE47F982E1F0CE46F21870043043225
S1131BC0CF545A0EEF2F1554092E77F7220B292ED6
S1131BD077F7FB6F505EB82E1050012ED40000B280
S1131BE0FB7F512F01B2482F02B2422F0390562F90
S1131BF0D75279804240818400404242982E930C0F
S1131C00D954D750A14098BD82403E82DA0A44405C
S1131C108B16E3005342002E43409A025242002E98
S1131C20414015544A0E3A2F3A8200304140212E49
S1131C30850F40B20A2F982EB10C982E450E982E7F
S1131C405B0EFB6FF05F0030802ECEB7DD52D354B5
S1131C5042424F847330DB5283421B306B42233049
S1131C60272ED700372ED400212ED6007A84172CA5
S1131C7042423030212ED400122D21300030232E48
S1131C80D400212E7BF70B2D1730982E510CD550F4
S1131C900C8272302F2ED400252E7BF74042002E6A
S1131CA0FB6FF05FB82E70500A253986FB7FE13256
S1131CB06230982EC2C4B556A56FAB08916F4B081D
S1131CC0DF56C46F23094DBA93BC8C0BD16F0B093B
S1131CD0CB52E15E5642AF094DBA23BD940AE56F7B
S1131CE068BBEB08BDB963BEFB6F5242E30AC02E6A
S1131CF04342905FD150032E25F3134000409BBC18
S1131D009BB408BDB8B998BCDA0A08B68916C02EC7
S1131D10190062021050FB7F982E810D012ED40011
S1131D2031300804FB6F0130F05F232ED600212EE2
S1131D30D700B82E012ED700032ED600480E012F4F
S1131D40802E1F0EB82EE350213401428230C1325E
S1131D50252E62F50100223001404A0A0142B82EC4
S1131D60E354F03B8340D808E5528342003083308B
S1131D705042C432272E64F5940050424042D33F6F
S1131D8084407D82E30840428342B82EDD52003015
S1131D9040427C86B952092E700FBF54C442D38688
S1131DA05440554094428542212ED7004240252E6E
S1131DB0FDF3C0427E82052E7D0080B2142F052ED5
S1131DC0890027BD2FB98090022F212E6FF50C2D8D
S1131DD0072E710F14301C09052E77F7BD5647BE28
S1131DE09308940A252E77F7E75450424A0EFC2FA5
S1131DF0B82E505002304386E550FB7FE37FD27FFC
S1131E00C07FB17F002E414000404804982E74C02A
S1131E101EAAD36F1430B16FE322C06F5240E46F37
S1131E204C0E1242D37FEB2F032E860F40901130BD
S1131E30032F232E860F022C0030D06FFB6FB05F70
S1131E40B82E4050F17F0A253C86EB7F4133223087
S1131E50982EC2C4D36FF430DC094758C26F94097A
S1131E60EB586ABBDC08B4B9B1BDE95A950821BD89
S1131E70F6BF770B51BEF16FEB6F52425442C02E46
S1131E804342C05F5050F55031301142FB7F7B30EC
S1131E900B4211300280233301420300072E8003DA
S1131EA0052ED3002352E27FD37FC07F982EB60E37
S1131EB0D16F080A1A257B86D07F01331230982E01
S1131EC0C2C4D16F080A00B20D2FE36F012E800344
S1131ED05130C786232E21F208BCC042982EA5B7E4
S1131EE0002E002ED02EB06F0BB8032E1B00081A44
S1131EF0B07F7030042F212E21F2002E002ED02E20
S1131F00982E6DC0982E5DC0ED50982E44CBEF50A6
S1131F10982E46C3F150982E53C73550982E64CF4F
S1131F201030982EDC032026C06F02311242AB33EE
S1131F300B42378001300142F337F752FB504440E3
S1131F40A20A42428B31092E5EF7F954E308834218
S1131F501B4223334B00BC840B40333083420B427F
S1131F60E07FD17F982E58B7D16F80304042033044
S1131F70E06FF3540430002E002E0189620EFA2F14
S1131F8043421130FB6FC02E0142B05FC14A0000D2
S1131F906D570000778E0000E0FFFFFFD3FFFFFFC7
S1131FA0E5FFFFFFEEE1FFFF7C13000046E6FFFFC5
S1131FB0000000000000000000000000000000001D
S1131FC0000000000000000000000000000000000D
S1131FD000000000000000000000000000000000FD
S1131FE000000000000000000000802E00C1802ED0
S1131FF000C1802E00C1802E00C1802E00C1802E21
S113200000C1802E00C1802E00C1802E00C1802E10
S113201000C1802E00C1802E00C1802E00C1802E00
S113202000C1802E00C1802E00C1802E00C1802EF0
S113203000C1802E00C1802E00C1802E00C1802EE0
S113204000C1802E00C1802E00C1802E00C1802ED0
S113205000C1802E00C1802E00C1802E00C1802EC0
S113206000C1802E00C1802E00C1802E00C1802EB0
S113207000C1802E00C1802E00C1802E00C1802EA0
S113208000C1802E00C1802E00C1802E00C1802E90
S113209000C1802E00C1802E00C1802E00C1802E80
S11320A000C1802E00C1802E00C1802E00C1802E70
S11320B000C1802E00C1802E00C1802E00C1802E60
S11320C000C1802E00C1802E00C1802E00C1802E50
S11320D000C1802E00C1410042004300440045007D
S11320E046004700480049004A004B004C004D00A0
S11320F04E004F0050005100520053005400550050
S113210056005700580059005A002100E0FFE1FF33
S1132110E5FFE2FFE3FFC000C100C200C300C4004A
S1132120C500C600C700C800C900CA00CB00CC0067
S1132130CD00CE00CF00D000D100D200D300D40017
S1132140D500D600D800D900DA00DB00DC00DD00C1
S1132150DE007801000102010401060108010A0100
S11321600C010E01100112011401160118011A01CB
S11321701C011E01200122012401260128012A013B
S11321802C012E01300132013401360139013B01A9
S11321903D013F0141014301450147014A014C0111
S11321A04E01500152015401560158015A015C017B
S11321B05E01600162016401660168016A016C01EB
S11321C06E01700172017401760179017B017D0158
S11321D09101910392039303940395039603970348
S11321E0980399039A039B039C039D039E039F03F7
S11321F0A003A103A303A403A503A603A703A803A1
S1132200A903AA03100411041204130414041504EA
S113221016041704180419041A041B041C041D04CE
S11322201E041F042004210422042304240425047E
S113223026042704280429042A042B042C042D042E
S11322402E042F04010402040304040405040604F8
S11322500704080409040A040B040C040E040F0404
S11322606021612162216321642165216621672146
S1132270682169216A216B216C216D216E216F21F6
S113228021FF22FF23FF24FF25FF26FF27FF28FF2E
S113229029FF2AFF2BFF2CFF2DFF2EFF2FFF30FFDE
S11322A031FF32FF33FF34FF35FF36FF37FF38FF8E
S11322B039FF3AFFFFFF61006200630064006500BC
S11322C066006700680069006A006B006C006D00BE
S11322D06E006F007000710072007300740075006E
S11322E076007700780079007A00A100A200A300AC
S11322F0A500AC00AF00E000E100E200E300E40070
S1132300E500E600E700E800E900EA00EB00EC0085
S1132310ED00EE00EF00F000F100F200F300F40035
S1132320F500F600F800F900FA00FB00FC00FD00DF
S1132330FE00FF00010103010501070109010B0172
S11323400D010F01110113011501170119011B01E1
S11323501D011F01210123012501270129012B0151
S11323602D012F0131013301350137013A013C01BF
S11323703E01400142014401460148014B014D0127
S11323804F01510153015501570159015B015D0191
S11323905F01610163016501670169016B016D0101
S11323A06F0171017301750177017A017C017E016E
S11323B09201B103B203B303B403B503B603B70385
S11323C0B803B903BA03BB03BC03BD03BE03BF0315
S11323D0C003C103C303C403C503C603C703C803BF
S11323E0C903CA0330043104320433043404350409
S11323F036043704380439043A043B043C043D04ED
S11324003E043F044004410442044304440445049C
S113241046044704480449044A044B044C044D044C
S11324204E044F04510452045304540455045604F6
S11324305704580459045A045B045C045E045F04A2
S113244070217121722173217421752176217721E4
S1132450782179217A217B217C217D217E217F2194
S113246041FF42FF43FF44FF45FF46FF47FF48FF4C
S113247049FF4AFF4BFF4CFF4DFF4EFF4FFF50FFFC
S113248051FF52FF53FF54FF55FF56FF57FF58FFAC
S113249059FF5AFFFFFFC700FC00E900E200E40017
S11324A0E000E500E700EA00EB00E800EF00EE00E2
S11324B0EC00C400C500C900E600C600F400F60044
S11324C0F200FB00F900FF00D600DC00A200A3002C
S11324D0A500A7209201E100ED00F300FA00F1004D
S11324E0D100AA00BA00BF001023AC00BD00BC009C
S11324F0A100AB00BB00912592259325022524253C
S113250061256225562555256325512557255D25C9
S11325105C255B251025142534252C251C25002538
S11325203C255E255F255A255425692566256025A9
S113253050256C256725682564256525592558256A
S1132540522553256B256A2518250C2588258425B5
S11325508C2590258025B103DF009303C003A303DA
S1132560C303B500C403A6039803A903B4031E223E
S1132570C603B50329226122B10065226422202307
S11325802123F7004822B0001922B7001A227F2025
S1132590B200A025A00011241FBECFEFD8E0DEBFFB
S11325A0CDBF12E0A0E0B1E0EEEAFCE602C0059087
S11325B00D92AE34B107D9F725E0AEE4B2E001C024
S11325C01D92AE3BB207E1F70E949F2A0C94553648
S11325D00C940000CF930E94442F60ED70E08CEEC9
S11325E090E00E94502F2FEF89E698E1215080401F
S11325F09040E1F700C000000E94442F8CEE90E070
S11326000E94962FC82F0E944C2FC036C9F48BB15C
S113261080688BB92FEF83ED90E321508040904088
S1132620E1F700C000008BB18F778BB92FEF83EDFA
S113263090E3215080409040E1F700C0000003C0C7
S11326408BB18F778BB940E050E065EF70E08CEE92
S113265090E00E94812F47E050E064EF70E08CEE40
S113266090E00E94812F40E050E062EF70E08CEE39
S113267090E00E94812F8BB180688BB9CF9108952F
S1132680CF930E94442F60E080ED0E94502F8FEC86
S113269097E00197F1F700C000000E94442F80EDFD
S11326A00E946D2FC82F0E944C2FC43221F48BB18D
S11326B088608BB903C08BB1877F8BB9CF910895A4
S11326C0CF93DF9346EB6EE780ED0E94812F8FE37B
S11326D09CE90197F1F700C000000E9440139FEFAE
S11326E023ED80E3915020408040E1F700C00000DA
S11326F08BB1877F8BB99FEF23ED80E3915020400E
S11327008040E1F700C0000040E06CE780ED0E94EB
S1132710812F8FEC97E00197F1F700C0000040E0B3
S113272069E580ED0E94812F0E94442F6EE580EDC3
S11327300E94502FC0E0D0E00BC0FE01EA52FF4FD0
S113274084910E94632F9AE69A95F1F700C021962E
S1132750C11520E2D20788F30E944C2F87E097E04E
S11327600197F1F700C0000041E069E580ED0E94A7
S1132770812F9FEF22E587E0915020408040E1F7D0
S113278000C0000061E280ED0E94962F80FF04C02B
S11327908BB188608BB903C08BB1877F8BB99FEFF6
S11327A023ED80E3915020408040E1F700C0000019
S11327B08BB1877F8BB99FEF23ED80E3915020404D
S11327C08040E1F700C00000DF91CF91089547EA0F
S11327D060E480ED0E94812F43E061E480ED0E947B
S11327E0812F45EA62E480ED0E94812F40E063E49A
S11327F080ED0E94812F46E06DE780ED0E94812FDD
S11328008BB188608BB908958038910550F1672B9E
S1132810E1F08F3F910509F010F5FC01E058F10952
S1132820EE0FFF1FEA56FB4D25913491C90108951F
S1132830F901EE0FFF1FEA56FB4D459154918417A1
S1132840950741F02F5F3F4F02C020E030E0203871
S1132850310570F320583F4FC9019927089580E04E
S113286090E0089540E050E002C04F5F5F4F9A014E
S1132870220F331F2A543D4DF90165917491681755
S1132880790798F3F901259134918217930739F464
S1132890FA01EE0FFF1FEA52FF4D859194910895BE
S11328A0FC01DB0106C08D919D918193919342506F
S11328B0510942305105B8F705C02C912083AC0171
S11328C011963196CA010197452BB9F70895FC0179
S11328D003C06083AC013196CA010197452BC9F747
S11328E00895CF93DF93DC01FB0180E090E002C008
S11328F0FB01DE019A0121503109452B61F0ED0104
S113290021968C9190E0BF016F5F7F4F4081841BC3
S11329109109A90169F3DF91CF910895FC0101C0E8
S113292031968081882329F0282F30E02617370735
S1132930B9F790E008950F931F93DC01FB01628DBA
S1132940738D80E090E02C91233059F4048915892B
S113295020E030E0980111270027602B712B822B97
S1132960932B1F910F910895FC01538F428F758B08
S1132970648B0895CF93DF93FB0125872FE0238792
S11329801486138E128E242F30E0215031095DE01D
S1132990529FE001539FD00D112420E030E0E0E08D
S11329A0F0E02F3F5FEF350741F0DE01AA0FBB1FB8
S11329B0A80FB91F2D913C912196DF01AB5ABE4F50
S11329C05C91DB01A50FB11D2D933C9321153105BD
S11329D011F42FEF3FEF3196ED30F10510F32F3F57
S11329E03F4F41F0CC0FDD1FC80FD91F888199815B
S11329F0892B09F44064FB014083DF91CF91089552
S1132A00CF92DF92EF92FF920F931F93CF93DF93B6
S1132A10CDB7DEB728970FB6F894DEBF0FBECDBF93
S1132A208C017A0169014BE050E00E94501446E0A9
S1132A30C416D10458F1C601A0E0B0E020C062E0A1
S1132A40E60EF11C40E050E017C0880F991FAA1F42
S1132A50BB1FB90161707727860F971FA11DB11D98
S1132A6036952795A0FF06C0E1E28E27E0E19E2778
S1132A70E1E0AE274F5F5F4F4031510530F3F7017E
S1132A802081318121153105D1F66C0187E090E078
S1132A9001C0C9012C2D2F7040E3420F4A3310F0BE
S1132AA047E3420F9C0121503109E1E0F0E0EC0FD3
S1132AB0FD1FE80FF91F4083D694C794D694C7949A
S1132AC0D694C794D694C794C114D10411F7E1E005
S1132AD0F0E0EC0FFD1FE20FF31F8EE7808380E030
S1132AE090E001C001968217930730F4F801E80FD3
S1132AF0F91F40814032B1F7AC014F5F5F4FD801FD
S1132B00A80FB91F2830310550F4E1E0F0E0EC0FD4
S1132B10FD1FE20FF31F60812F5F3F4F01C060E292
S1132B206C93CA014830510538F328960FB6F894CF
S1132B30DEBF0FBECDBFDF91CF911F910F91FF90EC
S1132B40EF90DF90CF900895FC012BE030E080E01F
S1132B5080FB879587F99081890F2150310931963F
S1132B6021153105A9F70895CF93DF93EC01A881CE
S1132B70B981109729F48FEF9FEF2AC0319601C0D5
S1132B80FD019081903210F09A33C1F79A33A1F489
S1132B90AD014F5F5F4F2C9130E0C901C0978A307F
S1132BA0910570F4E417F50771F48230910570F41F
S1132BB03196F983E8830CC08091500390E008C0FB
S1132BC08FEF9FEF05C08FEF9FEF02C08FEF9FEF56
S1132BD0DF91CF9108958F929F92AF92BF92CF923F
S1132BE0DF92EF92FF920F931F93CF93DF93FC0139
S1132BF02481222309F443C0EC01C6A4D7A4E0A88D
S1132C00F1A85C01F2E3AF0EB11C01E010E0A701F2
S1132C109601B50189810E94072D811132C01C8261
S1132C208AA19BA1ACA1BDA1B701A601481B590B68
S1132C306A0B7B0B8A8D9B8DAC8DBD8D4817590714
S1132C406A077B0700F58B80912C13C08A8D9B8DBE
S1132C50AC8DBD8DC80ED91EEA1EFB1E01E010E02E
S1132C60A7019601B50189810E94072D81E0881A88
S1132C709108E2E08E16910448F780E005C080E0F8
S1132C8003C081E001C080E0DF91CF911F910F91DB
S1132C90FF90EF90DF90CF90BF90AF909F908F9078
S1132CA008958F929F92AF92BF92FF920F931F93BA
S1132CB0CF93DF93EC014A015B018EA59FA5A8A9E0
S1132CC0B9A984179507A607B707E9F0CE010E94B2
S1132CD0EB15F82E811118C001E010E0A501940154
S1132CE0BE016E5C7F4F89810E94B12C882331F034
S1132CF0FF24F39488248A94982C54018EA69FA6CA
S1132D00A8AAB9AA01C0F12C8F2DDF91CF911F91F0
S1132D100F91FF90BF90AF909F908F900895CF93A5
S1132D20DF93EC011C828FEF9FEFDC018EA79FA73E
S1132D30A8ABB9ABCE010E945116811122C0FE018D
S1132D40E05DFD4F8081918185359A4AE1F4E85C2C
S1132D50F14080819181A281B381BB278634914463
S1132D60A445B10591F0CC57DF4F88819981AA81A0
S1132D70BB81BB2786349144A445B10541F480E06E
S1132D8007C083E005C082E003C080E001C081E0A9
S1132D90DF91CF9108950097C9F0DC01ED91FC918A
S1132DA011973097A9F020812223A1F02681378141
S1132DB012968D919C9113972817390769F4818194
S1132DC00E94AA2C80FF0AC083E0089589E0089538
S1132DD089E0089589E0089589E0089580E00895E0
S1132DE02F923F924F925F926F927F928F929F9217
S1132DF0AF92BF92CF92DF92EF92FF920F931F9305
S1132E00CF93DF93CDB7DEB76D970FB6F894DEBFDF
S1132E100FBECDBF6C01CB01B42EF601118210821E
S1132E200E94B4157C0199230CF43AC2FC01EE0F04
S1132E30FF1FED5AFC4F008111810115110509F4A2
S1132E4031C2F60111830083F8018081882361F087
S1132E5081810E94AA2C80FD07C0BB2009F424C2F2
S1132E6082FD24C280E041C2F8011082E1828E2DED
S1132E700E94DA2B80FD1CC2BB2011F082FD1AC215
S1132E8040E050E0BA01C8010E948F16813079F108
S1132E90C12CD12C760156C0F901E295F295F07F50
S1132EA0FE27E07FFE27E254FE4FC801C296E80FDA
S1132EB0F91F8481882329F080859185A285B385B3
S1132EC003C080E090E0DC01F901EE0FFF1FEE0F7C
S1132ED0FF1F88248394912C8C0E9D1EE80DF91DF0
S1132EE080839183A283B3832F5F3F4F02C020E08E
S1132EF030E02430310580F2A12CB12CF501EE0F25
S1132F00FF1FEE0FFF1F21E030E02C0F3D1FE20FEB
S1132F10F31FC080D180E280F380C114D104E104A6
S1132F20F10431F0B701A601C8010E948F1601C057
S1132F3082E0882339F03FEFA31AB30A44E0A416D1
S1132F40B104E0F2833009F4B7C18111B7C1F801CB
S1132F5085AD96AD8115924009F0B2C1F801E85BE8
S1132F60FF4F40805180612C712C41145104610445
S1132F70710429F43E964080518062807380F80188
S1132F80428E538E648E758EEE5BFF4FA081F801E6
S1132F90A3838FEF8A0F823008F094C1B0E0A301BD
S1132FA092010E9458336E8B7F8B888F998F27AD47
S1132FB02283222309F488C1422F50E0CA010197D9
S1132FC084239523892B09F081C1ED5BFF4F208079
S1132FD03180F80131862086C1018F709927892BB1
S1132FE009F076C1EB5BFF4F60817181CB01A0E0FA
S1132FF0B0E00097A105B10529F43D968081918147
S1133000A281B381F801E05CFF4F408151814115F9
S1133010510509F45FC14A01A12CB12C8A8E9B8E03
S1133020AC8EBD8E8E889F88A88CB98C4A8D5B8DA2
S11330306C8D7D8D840E951EA61EB71EF101F29532
S1133040E295EF70EF27FF70EF27B501A4014E0F53
S11330505F1F611D711D4A8B5B8B6C8B7D8B84178D
S11330609507A607B70708F437C1BC01CD018A88C4
S11330709B88AC88BD88681979098A099B0930E066
S113308040E050E00E941233DA01C90121153105F4
S11330904105510509F422C1263F6FE03607410579
S11330A0510518F471E0798B02C0E2E0E98B863FA8
S11330B09F4FA105B10510F063E0698B49015A01E6
S11330C072E0870E911CA11CB11CF801868A978AB4
S11330D0A08EB18EC68ED78EE0A2F1A28A8D9B8D72
S11330E0AC8DBD8D8C0D9D1DAE1DBF1D82A393A304
S11330F0A4A3B5A34A895B896C897D894C0D5D1DA8
S11331006E1D7F1D42A753A764A775A7F989F330E5
S1133110C1F4232809F0E4C0F801E25AFF4F80818A
S11331209181A281B381F80186A397A3A0A7B1A737
S1133130880C991CAA1CBB1C880C991CAA1CBB1CBF
S11331402DC0232809F4CEC02E893F89488D598D7E
S1133150820F931FA41FB51FF80186A397A3A0A7EE
S1133160B1A7F989F23029F4880C991CAA1CBB1C5C
S113317015C0A3E0B0E0A50194010E945833DC011E
S1133180CB01B695A7959795879521E0822299243E
S1133190AA24BB24880E991EAA1EBB1E3FEF830ED1
S11331A031E0931EA11CB11C072E79E0B694A794BC
S11331B0979487947A95D1F7702D481459046A042A
S11331C07B0408F491C08FEF9FEFDC01F801868740
S11331D09787A08BB18B82879387A487B58780E874
S11331E08583F989F33009F047C0F801EE59FF4FA0
S11331F080819181019709F03FC0B701A6014F5F1B
S11332005F4F6F4F7F4FC8010E945116811134C028
S1133210F8011582E05DFD4F8081918185359A4AE0
S113322059F5F80182A993A9A4A9B5A982359245B3
S1133230A146B14409F5F801EA5EFD4F8081918110
S1133240A281B38182379247A144B146A9F434964E
S113325080819181A281B381F80186879787A08BB1
S1133260B18BE25EFD4F80819181A281B381F8012F
S113327082879387A487B5878988F80180828091A3
S113328051039091520301969093520380935103FA
S113329097838683128A138A148A158A80E025C04C
S11332A08BE023C08CE021C080E01FC08AE01DC0F9
S11332B083E01BC08AE019C081E017C08DE015C00F
S11332C08DE013C08DE011C08DE00FC08DE00DC006
S11332D08DE00BC08DE009C08DE007C08DE005C016
S11332E08DE003C08DE001C08DE06D960FB6F894BB
S11332F0DEBF0FBECDBFDF91CF911F910F91FF9025
S1133300EF90DF90CF90BF90AF909F908F907F9081
S11333106F905F904F903F902F9008954F925F92DF
S11333206F927F928F929F92AF92BF92CF92DF92D1
S1133330EF92FF920F931F93CF93DF935C013B01B6
S1133340DB010D911C9102C00F5F1F4FF8018081BA
S11333508F32D1F38C35C1F3D5015696CD90DC90E4
S11333605797C0E0D0E080E090E07C01BFEFEB1A1B
S1133370FB0AF801E80FF91F808190E08032910583
S113338038F18F32910521F18C35910509F1C0385E
S1133390D10508F08AC161E070E00E9404144C0178
S11333A0009709F484C18038910540F4BC0181E0A0
S11333B091E00E948E14892B09F07BC1FE01EE0F6F
S11333C0FF1FEC0DFD1D91828082C7012196CDCF98
S11333D00E0D1F1DD3010D931C93809720F4689448
S11333E0552452F801C0512CC130D10559F4FE01C5
S11333F0E150F048EE0FFF1FEC0DFD1D808191811F
S11334008E97D9F0C230D10509F04DC0FE01E150CC
S1133410F048EE0FFF1FEC0DFD1D808191818E970A
S113342009F041C0FE01E250F048EE0FFF1FEC0D21
S1133430FD1D808191818E97B1F5FE01EE0FFF1F76
S1133440EC0DFD1D1182108280E090E00FC0D501CB
S11334505496ED91FC915597E80FF91F8C179D0731
S113346010F42EE201C020E2208301968B309105F6
S113347070F3F50124893589F901E80FF91F252D29
S11334802062208380E018C1FE01E150F048EE0F75
S1133490FF1FEC0DFD1D808191818032910511F09B
S11334A08E9719F42197209779F7209709F403C18F
S11334B0FE01EE0FFF1FEC0DFD1D118210824BE08B
S11334C050E060E270E0D50154968D919C9155973F
S11334D00E94671480E090E001C00196FC01EE0FA9
S11334E0FF1FEC0DFD1D2081318120323105A9F330
S11334F02E32310591F3009729F0B52DB3605B2E80
S113350001C021972097A1F0FE01E150F048EE0F91
S1133510FF1FEC0DFD1D208131812E32310589F70D
S11335206894882483F8912C612C712C412C07C059
S11335306894882483F8912C612C712C412C7C0193
S1133540EFEFEE1AFE0A880F991FF601E80FF91F34
S1133550008111810115110509F476C000321105AD
S113356031F00E32110541F4CE15DF0529F0F52DA9
S1133570F3605F2EC701E3CF6814790418F4CE1505
S1133580DF05F9F42BE08216910421F4352D336024
S1133590532E5AC0CE15DF0519F0852D8360582EA1
S11335A0CE15DF0508F450C0440C440CCE010F2E98
S11335B0FBE08F2E912CF02D6894662463F8712C17
S11335C0BECF0038110580F060E070E0C8010E94B1
S11335D004148C01009729F0FC01EE51FF4F008187
S11335E010E0A52DA2605A2E0115110539F0B8017D
S11335F08AE091E00E948E14892B31F0B52DB360DE
S11336005B2E0FE510E013C0C801815491094A975D
S113361020F4E42DE2604E2E0AC0C80181569109BF
S11336204A9728F4F42DF1604F2E00521109D50168
S11336305496ED91FC915597E60DF71D0083C70153
S1133640F30131963F017BCFD5015496ED91FC9166
S113365055978081853E11F485E08083B8E08B1610
S1133660910411F4440C440C942D9C709C3021F072
S1133670842D8370833019F4E52DE2605E2E51FCB5
S11336800CC0842D8370813019F4F52DF0615F2E08
S1133690943019F4252D2860522ED5015496ED91BD
S11336A0FC915597538680E007C086E005C086E00C
S11336B003C086E001C086E0DF91CF911F910F9196
S11336C0FF90EF90DF90CF90BF90AF909F908F903E
S11336D07F906F905F904F9008958F929F92AF92DA
S11336E0BF92CF92DF92EF92FF920F931F93CF93EB
S11336F0DF935C014B01FB01808190E08F7B01979C
S11337002DE0289F8001299F100D1124EE24E394BD
S1133710F12CC0E0D0E0FE01EB5AFE4F8081F401B1
S1133720E80FF11D80819181E114F104C1F00E9440
S113373032147C010038110550F56801FFEFCF1AEF
S1133740DF0A000F111FF501E00FF11F8081918145
S11337500E943214E816F906E9F4860102C00196C3
S1133760E1F42196CD30D105B0F2F401808186FFD9
S113377017C0EF28C1F0000F111FF501E00FF11F72
S113378080819181892B91F481E090E011C080E0E7
S113379090E00EC080E090E00BC080E090E008C0B4
S11337A081E090E005C081E090E002C080E090E01C
S11337B0DF91CF911F910F91FF90EF90DF90CF9009
S11337C0BF90AF909F908F900895CF92DF92FF9219
S11337D00F931F93CF93DF93EC010E94EB15F82E08
S11337E081115CC08881833009F04EC08D818130A5
S11337F009F04AC040E052E060E070E06E0182E30C
S1133800C80ED11CC6010E94671485E59AEAFE0120
S1133810E05DFD4F9183808382E592E5A1E6B1E40A
S11338208AAB9BABACABBDAB82E792E7A1E4B1E65C
S11338307A9780839183A283B3838E859F85A88999
S1133840B989349680839183A283B3838A859B85C7
S1133850AC85BD85349680839183A283B3838E8D9A
S11338609F8DA8A1B9A19C01AD012F5F3F4F4F4F80
S11338705F4F2EA73FA748AB59AB01E010E0B6015C
S113388089810E94072D1D8240E050E060E089811B
S11338900E947B2D882311F0FF24F3948F2DDF9158
S11338A0CF911F910F91FF90DF90CF9008950F93C8
S11338B01F93FC019A01AB012250310941095109BE
S11338C086899789A08DB18D0297A109B10928171E
S11338D039074A075B0768F4A281B0E00E945833B5
S11338E002A513A524A535A5600F711F821F931F80
S11338F003C060E070E0CB011F910F910895AF9277
S1133900BF92CF92DF92EF92FF920F931F93CF93C8
S1133910DF93423051056105710508F4B7C0FC011D
S113392006891789208D318D401751076207730767
S113393008F0B1C06A017B01EC018081823009F496
S113394050C0833009F471C0813009F0A9C08A01E4
S113395016950795040F151F42A153A164A175A1E3
S1133960C801892F99278695480F591F611D711D1C
S1133970CF010E945116811198C05801FFEFAF1A70
S1133980BF0A1170FE01E00FF11F02A910E04AA165
S11339905BA16CA17DA1C501892F99278695480F4C
S11339A0591F611D711DCE010E945116811181C0E4
S11339B081E0B822CA0DDB1D6AA970E0762F662764
S11339C0602B712BC0FE09C0729562956F706727DA
S11339D07F70672780E090E077C07F7080E090E0A0
S11339E073C042A153A164A175A1BB27AF2D9E2D25
S11339F08D2D480F591F6A1F7B1FCF010E9451163E
S1133A0081115BC0B701A601440F551F661F771FC4
S1133A104E7F5170662777274E5C5F4FC40FD51FCA
S1133A206881798180E090E04FC042A153A164A1F4
S1133A3075A1D701C601689416F8B695A795979510
S1133A4087951694D1F7480F591F6A1F7B1FCF0122
S1133A500E945116811135C0B701A601440F551FAC
S1133A60661F771F440F551F661F771F4C7F5170C9
S1133A70662777274E5C5F4FC40FD51F88819981D5
S1133A80AA81BB81BC01CD019F701EC061E070E0C2
S1133A9080E090E019C061E070E080E090E014C044
S1133AA061E070E080E090E00FC06FEF7FEFCB014A
S1133AB00BC06FEF7FEFCB0107C06FEF7FEFCB0140
S1133AC003C06FEF7FEFCB01DF91CF911F910F9177
S1133AD0FF90EF90DF90CF90BF90AF900895AF929A
S1133AE0BF92CF92DF92EF92FF920F931F93CF93E7
S1133AF0DF93EC018B017D836C83CE80DF80E884CF
S1133B00F98481E0C816D104E104F10409F488C001
S1133B10E881F98186899789A08DB18DC816D90667
S1133B20EA06FB0608F07EC0C114D104E104F104E6
S1133B3039F48081833021F4C6A0D7A0E0A4F1A495
S1133B40C114D104E104F10459F480859185081766
S1133B50190708F069C066A177A180A591A533C0B3
S1133B60A28080E1A89E5001112424C0B701A601BF
S1133B70888199810E947F1C6B017C018FEFC8169C
S1133B80D806E806F80609F451C082E0C816D10444
S1133B90E104F10408F44CC0E881F981868997892D
S1133BA0A08DB18DC816D906EA06FB0608F042C0FE
S1133BB00A191B090A151B05C8F6B701A601888155
S1133BC099810E94571CCA86DB86EC86FD866115A6
S1133BD071058105910581F19801329522952F7027
S1133BE023273F702327DC01CB01820F931FA11DE4
S1133BF0B11D8E879F87A88BB98B88819981C296C6
S1133C000F701127000F111F02951295107F1027B6
S1133C10007F1027080F191F1B8B0A8B80E00DC033
S1133C2082E00BC082E009C082E007C081E005C0E9
S1133C3082E003C082E001C082E0DF91CF911F9156
S1133C400F91FF90EF90DF90CF90BF90AF900895C9
S1133C504F925F926F927F928F929F92AF92BF9298
S1133C60CF92DF92EF92FF920F931F93CF93DF9344
S1133C70423051056105710508F4E4C0FC01C688B1
S1133C80D788E08CF18C4C155D056E057F0508F036
S1133C90DBC0280139016A017B01EC01808182309B
S1133CA009F46CC0833009F48FC0813009F0CEC0B0
S1133CB05A01B694A794A40EB51E42A153A164A1BF
S1133CC075A1C501892F99278695480F591F611D34
S1133CD0711DCF010E9451168111B9C085010F5F7A
S1133CE01F4FC501917046015701F1E08F229924BD
S1133CF0AA24BB24C0FE0BC0FE01E80FF91F42A991
S1133D0050E1459E900111244F70242B01C0242DB5
S1133D10FE01E80FF91F22AB81E08C834AA15BA16D
S1133D206CA17DA1C801892F99278695480F591F39
S1133D30611D711DCE010E945116811188C0980128
S1133D40317089288A288B2849F0689413F876946E
S1133D506794579447941694D1F709C0FE01E20F73
S1133D60F31F42A9407F952D9F70442E492AFE01DE
S1133D70E20FF31F42AA91E09C8369C042A153A1C0
S1133D8064A175A1BB27AF2D9E2D8D2D480F591F02
S1133D906A1F7B1FCF010E945116811158C0CC0CA1
S1133DA0DD1CEE1CFF1CE894C0F891E0D922EE243F
S1133DB0FF24E2E3CE0ED11CFE01EC0DFD1D518269
S1133DC0408291E09C8343C042A153A164A175A1A8
S1133DD0D701C601689416F8B695A7959795879567
S1133DE01694D1F7480F591F6A1F7B1FCF010E94F9
S1133DF0511681112CC0CC0CDD1CEE1CFF1CCC0C0C
S1133E00DD1CEE1CFF1CFCEFCF22F1E0DF22EE24D0
S1133E10FF2422E3C20ED11CFE01EC0DFD1D008126
S1133E20118122813381002711272227307F402AE4
S1133E30512A622A732A408251826282738291E0FB
S1133E409C8305C082E003C082E001C082E0DF9170
S1133E50CF911F910F91FF90EF90DF90CF90BF9083
S1133E60AF909F908F907F906F905F904F90089548
S1133E704F925F926F927F928F929F92AF92BF9276
S1133E80CF92DF92EF92FF920F931F93CF93DF9322
S1133E90EC012A013B01411551056105710599F4B5
S1133EA08A849B84AC84BD8481149104A104B104EC
S1133EB031F18E899F89A88DB98D88169906AA0635
S1133EC0BB0610F525C00E947F1C62307105810578
S1133ED0910508F493C06F3F2FEF72078207920792
S1133EE009F491C0CE88DF88E88CF98C6C157D05C7
S1133EF08E059F0508F48BC05301420109C0812C33
S1133F00912C5401839404C0812C912C54018394EA
S1133F10750164018FEFC81AD80AE80AF80A8E8975
S1133F209F89A88DB98DC816D906EA06FB0660F0EC
S1133F3022E082169104A104B10408F46CC0C12CDF
S1133F40D12C76016894C1F8B701A601CE010E9474
S1133F507F1C611571058105910599F06F3F2FEF65
S1133F6072078207920709F45BC06130710581050D
S1133F70910509F459C0C814D904EA04FB0451F6A4
S1133F8057C00FEF1FEF2FEF3FE0B701A601CE019F
S1133F900E94281E81110CC0411451046104710453
S1133FA039F097018601B301A201CE010E94281EB7
S1133FB081111DC0CA86DB86EC86FD868E859F85B1
S1133FC0A889B9898F3F2FEF9207A207B207A9F1F9
S1133FD00197A109B1098E879F87A88BB98B8D8121
S1133FE081608D834C2D3D2D2E2D9F2D2FC0813032
S1133FF049F54FEF3FEF2FEF9FEF28C041E030E04E
S113400020E090E023C0462F372F282F1FC0462FD3
S1134010372F282F1BC040E030E020E090E016C08E
S1134020462F372F282F12C0462F372F282F0EC088
S113403040E030E020E090E009C04C2D3D2D2E2DD5
S11340409F2D04C041E030E020E090E0642F732F06
S1134050822FDF91CF911F910F91FF90EF90DF900E
S1134060CF90BF90AF909F908F907F906F905F9014
S11340704F9008958F929F92AF92BF92CF92DF920A
S1134080EF92FF920F931F93CF93DF93DC0114966B
S1134090CD91DC911597219609F4FFC01E968D9061
S11340A09D90AD90BC90519781149104A104B104EA
S11340B009F4F5C07B018C016E01BFE0CB22DD2445
S11340C0C114D10409F0D3C0EFEF8E1A9E0AAE0AD0
S11340D0BE0ADC011E968D929D92AD92BC925197C0
S11340E01A964D915D916D917C911D9741155105E5
S11340F06105710549F4ED91FC9180859185C8179E
S1134100D90708F0CEC0B3C0DC01ED91FC91228147
S113411030E021503109CE01929582958F70892724
S11341209F70892728233923232B09F0A0C0CF01AE
S11341300E947F1C4B015C01623071058105910571
S113414008F4B1C06F3F7F4F8F4F9F4F09F4ADC04C
S1134150D801ED91FC9186899789A08DB18D88163F
S11341609906AA06BB0608F470C0EF2809F49FC09C
S1134170D8011A964D915D916D917C911D97CF0157
S11341800E94381F4B015C01611571058105910581
S113419009F48FC0613071058105910509F48BC064
S11341A06F3F7F4F8F4F9F4F09F487C0D8018D9188
S11341B09C910E94EB15811182C0F801808191814C
S11341C040E052E060E070E0C2960E946714D801BB
S11341D0ED90FC90B501A401C7010E94571CF701A2
S11341E066A777A780AB91ABE12CF12C1AC081E0D4
S11341F08483D8018D919C910E94EB15811161C03B
S1134200D801ED91FC9186A597A5A0A9B1A9019625
S1134210A11DB11D86A797A7A0ABB1ABBFEFEB1A49
S1134220FB0AD801ED91FC91828190E0E816F90631
S1134230F0F286A597A5A0A9B1A98E199F09A10995
S1134240B10986A797A7A0ABB1ABF8018286938684
S1134250A486B586B501A401808191810E94571C72
S1134260D8011E966D937D938D939C935197F8017D
S1134270D583C48380819181C296CC0CDD1CCC0C87
S1134280DD1CCC0CDD1CCC0CDD1CCC0CDD1CC80EE8
S1134290D91ED38AC28A80E015C084E013C084E0AA
S11342A011C084E00FC082E00DC081E00BC084E047
S11342B009C087E007C082E005C081E003C081E057
S11342C001C081E0DF91CF911F910F91FF90EF909A
S11342D0DF90CF90BF90AF909F908F900895DF9222
S11342E0EF92FF920F931F93CF93DF93EC0160E063
S11342F070E00E946F1D811175C08FEF9FEF998F41
S1134300888FDD24DA940FEF4E855F85688979897B
S1134310888199810E945116182F81115DC0EA8805
S1134320FB88F7019081992309F457C08385282FCE
S11343302F73953E21F083FF08C02F3031F08FEFAB
S11343409FEF998F888F0FEF3EC02F30E9F42E89AD
S11343503F8921153105B9F196FF08C0F701D584CD
S11343609F7B4C815D81598F488F092F901326C004
S1134370F7018585D81224C0B701C9010E946D1BBD
S1134380892B01F101501FC0011105C0C7010E9412
S1134390A415D81621F1EC89FD89838580FD08C018
S11343A04BE050E0BF01C7010E947114892BC9F092
S11343B08FEF9FEF998F888F0FEF05C00FEF03C02A
S11343C00FEF01C00FEF60E070E0CE010E943A20D1
S11343D0882309F499CF06C005C084E003C0812F67
S11343E001C0812FDF91CF911F910F91FF90EF902A
S11343F0DF900895FF920F931F93CF93DF9300D024
S1134400CDB7DEB78C017A836983E62FF72F8081DD
S11344108F3211F08C3559F43196FA83E983D8013F
S113442016961D921D921D921C9219970CC0D801CC
S1134430ED91FC9182899389A489B589F8018683D9
S11344409783A087B187E981FA818081803260F403
S113445060E070E0C8010E946F1DF82ED8015396E9
S11344601C921E9252974AC0BE016F5F7F4FC801D3
S11344700E948E19F82E811141C0C8010E946F213B
S1134480D8015496ED91FC9155979385882391F02A
S1134490843039F595FF0AC0F80116821782108618
S11344A01186138A128A92FFDFCF28C092FF1BC0A5
S11344B0F82E24C092FD1CC0D80152966D917C91B7
S11344C05397FB01838584FF15C08D919C910E94B5
S11344D09B14D80116966D937D938D939C93199795
S11344E0C3CFF82E0BC00F2EF5E0FF2EF02D06C023
S11344F0F82E04C00F2EF5E0FF2EF02D8F2D0F9017
S11345000F90DF91CF911F910F91FF900895EF923B
S1134510FF920F931F93CF93DF93EC017B0160E035
S113452070E00E946F1D811122C000E010E04E85F2
S11345305F8568897989888199810E9451168111E2
S113454016C0EA89FB899081953E11F0911106C04D
S11345500F5F1F4F0E151F0519F409C000E010E08E
S113456061E070E0CE010E943A20882301F3843098
S113457009F487E0DF91CF911F910F91FF90EF90A5
S113458008958F929F92AF92BF92CF92DF92FF9243
S11345900F931F93CF93DF93CDB7DEB72C970FB64E
S11345A0F894DEBF0FBECDBF6C01DC015496AD9014
S11345B0BC90559756968D909C9057974CE050E040
S11345C0B501CE0101960E9450148C8585FDC6C0AC
S11345D080FF2CC0F5011386D60157961C921E92BB
S11345E0569701E010E010C09801A401BE016F5F6E
S11345F07F4FC5010E940015C6010E946F21F82E4D
S1134600811105C00F5F1F4F0436110568F304368E
S1134610110509F4A5C0B4E0FB12A4C08C85F50112
S11346208387D60157969C928E9256978C8581FDEE
S113463006C001E010E019C02F5F3F4F02C020E028
S113464030E0F901EE0FFF1FE80DF91D8081918123
S1134650892B91F7275E3F4FA5ECBEE40E944233BD
S11346608C011695079516950795B801C6010E9409
S1134670872281113CC001501109C9F1F6016481FE
S11346807581601B710BC6010E946F1D81112FC0C3
S1134690D60154968D919C9155970E94A415F82E9D
S11346A0F6014685578560897189808191810E94D0
S11346B0511681111CC0D60152966D917C9153976D
S11346C02F2D402F56968D919C9157970E94BA1486
S11346D0D601ED91FC9181E0848360E070E0C60135
S11346E00E943A20811103C001501109C9F68111B9
S11346F03BC0F60146855785608971898081918127
S11347000E945116F82E81112FC040E250E060E063
S113471070E0D60152968D919C9153970E94671434
S1134720F601648975894BE050E0828993890E947F
S11347305014D60152962D913C91539754960D9056
S1134740BC91A02D1B968C918871F9018487D601A8
S1134750ED91FC9181E084838F2D06C086E004C036
S113476087E002C08F2D00C02C960FB6F894DEBFF0
S11347700FBECDBFDF91CF911F910F91FF90DF90BE
S1134780CF90BF90AF909F908F9008958F929F92FB
S1134790AF92BF92CF92DF92EF92FF920F931F934B
S11347A0CF93DF93EC016A017B014230510561052F
S11347B0710508F450C08E899F89A88DB98D48175A
S11347C059076A077B0708F048C010E039C0B701F1
S11347D0A601CE010E947F1C4B015C01672B682B54
S11347E0692B09F43FC081E088169104A104B10447
S11347F0B1F12FEF82169206A206B20691F100E003
S113480010E09801B701A601CE010E94281E182FBE
S1134810811128C08E859F85A889B9898F3F2FEF84
S11348209207A207B20751F00196A11DB11D8E8710
S11348309F87A88BB98B8D8181608D8375016401FD
S11348408E899F89A88DB98DC816D906EA06FB06FC
S113485008F4BDCF07C012E005C012E003C012E0A7
S113486001C011E0812FDF91CF911F910F91FF9033
S1134870EF90DF90CF90BF90AF909F908F9008956E
S11348801F93CF93DF9300D000D000D0CDB7DEB715
S11348909C838B837E836D83142F7A836983CE01FB
S11348A001960E94B415992334F1FC01EE0FFF1F09
S11348B0ED5AFC4F0190F081E02D309709F0108201
S11348C0EB81FC81309709F010822B813C81880FA9
S11348D0991FFC01ED5AFC4F31832083232B69F08F
S11348E0113069F440E0BE016B5F7F4FCE01039647
S11348F00E94F01605C08BE003C080E001C080E098
S113490026960FB6F894DEBF0FBECDBFDF91CF91D0
S11349101F9108954F925F926F927F92AF92BF92D0
S1134920CF92DF92EF92FF920F931F93CF93DF9377
S1134930CDB7DEB7AC970FB6F894DEBF0FBECDBFD0
S113494078A76FA3009709F4E4C0042F7C01DC016D
S11349501D921C92B42FBF71DB2E4E71BE01695D96
S11349607F4FCE0101960E94F0168111D5C0CE0171
S11349704B969E8B8D8B8EE492E0988F8F8B6FA1DC
S113498078A5CE0101960E94FA21182FAB88BC8825
S1134990811104C0A114B10409F416E0802F8C71B4
S11349A009F464C0112369F0143029F4CE0101968E
S11349B00E94C122182FED2DE860DE2EAB88BC8842
S11349C00BC0D5011B968C91817119F402FD03C0B3
S11349D003C017E001C018E0111157C0D3FE55C041
S11349E00E94FE32F50166877787808B918B138650
S11349F0148E158E168E178EB50189819A810E94A8
S1134A009B142B013C0140E050E0BA01C5010E9417
S1134A10B414E981FA8181E084834114510461046E
S1134A20710499F186A597A5A0A9B1A989A79AA708
S1134A30ABA7BCA7B301A201CF010E94C623182FC4
S1134A40811123C089819A81A1E04A1A5108610821
S1134A507108FC01428653866486758649A55AA569
S1134A606BA57CA50E945116182F0FC011110DC003
S1134A70D5011B968C9184FD05C001FF06C080FD05
S1134A8003C003C014E001C017E0111112C0D3FE2B
S1134A9003C0BD2DB062DB2EE981FA8186A597A5FE
S1134AA0A0A9B1A9F701828F938FA48FB58FB78E78
S1134AB0A68E111130C0D7011496DC921497159666
S1134AC01C92C980DA80B501C6010E949B14F701CB
S1134AD066877787808B918BF501848D958DA68D64
S1134AE0B78DF70182879387A487B58716821782CB
S1134AF010861186168A178A108E118ED182C08272
S1134B00D60116968D919C91179793838283812F5A
S1134B1003C089E001C0812FAC960FB6F894DEBFC4
S1134B200FBECDBFDF91CF911F910F91FF90EF90FA
S1134B30DF90CF90BF90AF907F906F905F904F9039
S1134B4008952F923F924F925F926F927F928F922D
S1134B509F92AF92BF92CF92DF92EF92FF920F9308
S1134B601F93CF93DF9300D000D0CDB7DEB79C83E3
S1134B708B834B016A015901D9011D921C920E9439
S1134B80CB168111C0C1EB81FC8185818111BBC130
S1134B90848181FFB7C186819781A085B185AC01ED
S1134BA0BD014C0D5D1D611D711D481759076A0734
S1134BB07B0708F086C1C12CD12C83C1EB81FC8119
S1134BC086819781A085B185AC01BD0151706627AE
S1134BD07727452B462B472B09F01BC120813181B8
S1134BE0F90112811150AC01BD01032E39E0769513
S1134BF06795579547953A95D1F7302D142309F0C9
S1134C0054C0892B8A2B8B2BA1F4AB81BC811E96BB
S1134C106D917D918D919C915197611571058105DF
S1134C20910581F440E050E0BA01C9010E94381FA7
S1134C3009C0EB81FC814289538964897589C90162
S1134C400E94381F611571058105910509F43DC164
S1134C50613071058105910531F482E0AB81BC813D
S1134C6015968C9350C16F3FBFEF7B078B079B0753
S1134C7029F481E0EB81FC81858345C1AB81BC8152
S1134C8052966D937D938D939C9355971E964D905C
S1134C905D906D907C90519745284628472829F4CB
S1134CA0FD0166877787808B918BAB81BC812D91C9
S1134CB03C911197F90146A557A560A971A956968B
S1134CC08D919D910D90BC91A02D481759076A07AD
S1134CD07B0759F4C9010E94EB15882331F081E068
S1134CE0AB81BC8115968C930EC1EB81FC8142890A
S1134CF053896489758920803180C1010E94571CC1
S1134D00611571058105910531F482E0AB81BC81A7
S1134D1015968C93F8C02B013C01410E511C611C6B
S1134D20711C7601EF2CFF24E694E114F10409F4DC
S1134D3048C0F1014281242F30E0C701810F911D49
S1134D402817390718F47901E11AF1088701A3013A
S1134D509201B401D10111968C910E94072D8823F0
S1134D6029F081E0EB81FC818583CDC0AB81BC81DE
S1134D70ED91FC9186A597A5A0A9B1A984199509DF
S1134D80A609B709A70160E070E084179507A60794
S1134D90B70798F4282F220F2A83198269817A8110
S1134DA0680D791D40E052E0CF01C2960E94501474
S1134DB0AB81BC81ED91FC911482FE2CEE24FF0C9E
S1134DC066C0EB81FC81468157816085718582854F
S1134DD09385A485B585481759076A077B0798F01A
S1134DE0C1010E94EB15882331F081E0AB81BC81C5
S1134DF015968C9388C0AB81BC81ED91FC9146A63D
S1134E0057A660AA71AAEB81FC81468A578A608EF4
S1134E10718EEB81FC8186819781A085B18591702B
S1134E2020E032E07901E81AF90ACE14DF0408F42C
S1134E307601AB81BC8156964D915D916D917C91CB
S1134E4059978D919C910E945116882329F081E0F5
S1134E50EB81FC81858357C0AB81BC812D913C9152
S1134E60119716968D919D910D90BC91A02D9170E6
S1134E70AA27BB27C296A701B401820F931F0E94E1
S1134E805014AB81BC81ED91FC9181E084838E0C44
S1134E909F1CEB81FC8186819781A085B1858E0D55
S1134EA09F1DA11DB11D86839783A087B187D5015E
S1134EB08D919C9111978E0D9F1D8D939C93CE186F
S1134EC0DF08C114D10409F079CEEB81FC8186811D
S1134ED09781A085B185428553856485758548177A
S1134EE059076A077B0720F482879387A487B587CD
S1134EF0AB81BC8114968C911497806214968C9328
S1134F0080E001C087E00F900F900F900F90DF9129
S1134F10CF911F910F91FF90EF90DF90CF90BF90B2
S1134F20AF909F908F907F906F905F904F903F9045
S1134F302F9008950F931F93CF93DF93EC010E945A
S1134F40CB16811136C09C8195FF33C04A8D5B8D91
S1134F506C8D7D8D888199810E945116811129C0A3
S1134F600E8D1F8DF8018385806283878A859B85DA
S1134F70AC85BD85848F958FA68FB78F4E855F8551
S1134F8068897989C8010E94B4140E94FE32F8012C
S1134F90668B778B808F918F138A128A8C818F7D99
S1134FA08C83E881F98181E08483888199810E94DE
S1134FB0E51BDF91CF911F910F910895CF93DF935C
S1134FC0EC010E949A27811107C0CE010E94CB16E2
S1134FD0811102C019821882DF91CF9108952F9216
S1134FE03F924F925F926F927F928F929F92AF9275
S1134FF0BF92CF92DF92EF92FF921F93CF93DF93F2
S113500000D000D000D0CDB7DEB79E838D836A0177
S11350107B010E94CB16182F81118FC1AD81BE81F7
S113502015968C91159781118AC11A968D919D912F
S11350300D90BC91A02D8C159D05AE05BF0538F4CF
S1135040ED81FE81248121FD02C06C017D01AD81D1
S1135050BE8116964D905D906D907C901997FD01E0
S11350601682178210861186C114D104E104F1045A
S113507009F42CC120803180D10112968C90912C9E
S1135080A12CB12C072E79E0880C991CAA1CBB1CFE
S11350907A95D1F7702D411451046104710409F417
S11350A040C0C701B6016150710981099109A50188
S11350B094010E94123329833A834B835C83B1E0C9
S11350C04B1A510861087108C301B201A50194018A
S11350D00E94123389819A81AB81BC818217930724
S11350E0A407B507F0F088279927DC0188199909E6
S11350F0AA09BB09482259226A227B22AD81BE81BA
S113510016964D925D926D927C921997C418D508AB
S1135110E608F70852964D915D916D917C915597F3
S113512037C0ED81FE8146855785608971894115B7
S113513051056105710531F540E050E0BA01C10146
S11351400E94381FAB01BC01413051056105710556
S113515031F482E0AD81BE8115968C93F0C04F3F4F
S1135160BFEF5B076B077B0729F481E0ED81FE81CC
S11351708583E5C0AD81BE811E964D935D936D938D
S11351807C935197ED81FE81428B538B648B758B9D
S1135190411551056105710509F05BC0C12CD12C85
S11351A076019BC0AD81BE8114968C91149781FFCA
S11351B00CC08D919C910E94381FAB01BC0141151C
S11351C051056105710549F44BC0AD81BE818D91D6
S11351D09C910E947F1CAB01BC014F3FBFEF5B075A
S11351E06B077B0729F4ED81FE8181E08583A7C0ED
S11351F0423051056105710568F0AD81BE81ED91C4
S1135200FC9186899789A08DB18D481759076A0743
S11352107B0728F0ED81FE8182E0858390C0AD811B
S1135220BE8152964D935D936D937C935597FD018A
S113523086819781A085B185880D991DAA1DBB1D06
S113524086839783A087B187C818D908EA08FB0822
S113525000C08C149D04AE04BF0408F4A3CF02C0A4
S113526075016401ED81FE8186819781A085B185F8
S11352708C0D9D1DAE1DBF1D86839783A087B187AE
S1135280D701C6019170AA27BB27892B8A2B8B2BA8
S113529009F1808191810E94571C61157105810576
S11352A0910531F482E0AD81BE8115968C9347C09F
S11352B00B2EB9E0F694E794D794C794BA95D1F736
S11352C0B02DC60ED71EE81EF91E07C0C12CD12C66
S11352D0760103C0C12CD12C7601ED81FE8186813B
S11352E09781A085B185AC01BD01517066277727F0
S11352F0452B462B472B69F046895789608D718D64
S1135300C416D506E606F70621F0C68AD78AE08ECB
S1135310F18EED81FE81428553856485758548173C
S113532059076A077B0750F482879387A487B58758
S1135330848180628483812F02C001C0812F2696DC
S11353400FB6F894DEBF0FBECDBFDF91CF911F9192
S1135350FF90EF90DF90CF90BF90AF909F908F9091
S11353607F906F905F904F903F902F900895E1E869
S1135370F0E080818860808380818360808387EA15
S113538091E69093890080938800EFE6F0E08081B5
S11353908260808308955F926F927F928F929F9232
S11353A0AF92BF92CF92DF92EF92FF920F931F932F
S11353B0CF93DF93CDB7DEB72E970FB6F894DEBF49
S11353C00FBECDBF6CE080ED0E94962F682E6DE07D
S11353D080ED0E94962F782E6EE080ED0E94962F2D
S11353E0882E6FE080ED0E94962F982E60E180ED6C
S11353F00E94962FA82E61E180ED0E94962FB82E70
S113540062E180ED0E94962FC82E63E180ED0E9438
S1135410962FE82E64E180ED0E94962FD82E65E148
S113542080ED0E94962F082F66E180ED0E94962F52
S1135430F82E67E180ED0E94962F182F68EF8CEE0E
S11354400E94962F582E67EF8CEE0E94962F852D82
S113545090E00E947730272D30E0322F2227262932
S11354603A832983292D30E0322F222728293C83AF
S11354702B832B2D30E0322F22272A293E832D83A4
S11354802E2D30E0322F22272C2938872F83202FEE
S113549030E0322F22272D293A872987212F30E027
S11354A0322F22272F293C872B8782959295907F34
S11354B09827807F98279E878D87CE0101960E942A
S11354C08B322E960FB6F894DEBF0FBECDBFDF91A0
S11354D0CF911F910F91FF90EF90DF90CF90BF90ED
S11354E0AF909F908F907F906F905F9008951F92E0
S11354F00F920FB60F9211242F933F934F935F9304
S11355006F937F938F939F93AF93BF93EF93FF9387
S11355109BB180E489278BB90E94CB29FF91EF913D
S1135520BF91AF919F918F917F916F915F914F91B7
S11355303F912F910F900FBE0F901F9018958AB135
S113554088608AB98AB180618AB98AB180628AB96D
S11355508AB180648AB98AB180688AB90E943E2F70
S11355600E9460130E94E7130E94EA120E94AC2F6B
S11355700E942B3278940E94B729FFCF84B18C62A9
S113558084B985B1806185B981E58CBD08958CB5F8
S11355908F6B8CBD08958EBD0DB407FEFDCF8EB507
S11355A00895FC0101C0F90180818EBD0DB407FE90
S11355B0FDCF9F012E5F3F4F81818EBD0DB407FE4D
S11355C0FDCF6250710979F70895FC0101C0F9011A
S11355D08FEF8EBD0DB407FEFDCF8EB580838FEFA8
S11355E08EBD0DB407FEFDCF9F012E5F3F4F8EB5DC
S11355F081836250710959F708959C01ADECBCECAC
S11356000E944233969587959695879596958795AA
S1135610809358038FEF0E94CB2A8F3F21F0909103
S113562058039111F7CF91E08F3F09F090E0892F53
S113563090E0089585B1846085B98FEF0E94CB2AEC
S11356400895CF93DF9385B18B7F85B98FEF0E9447
S1135650CB2A84EF91E00E94FD2AEC01892B19F4F6
S11356600E941A2B02C0C1E0D0E0CE01DF91CF919D
S113567008950F931F93CF93DF93EC018B0184E183
S1135680809359038FEF0E94CB2A8F3F21F490918E
S113569059039111F7CF8E3F69F4B801CE010E94EE
S11356A0E52A8FEF0E94CB2A8FEF0E94CB2A81E05C
S11356B090E002C080E090E0DF91CF911F910F91C4
S11356C008950F931F93CF938C01C62F84EF91E01D
S11356D00E94FD2A0097F1F08C2F0E94CB2ACD3F27
S11356E0A1F060E072E0C8010E94D12A8FEF0E940D
S11356F0CB2A8FEF0E94CB2A8FEF0E94CB2A8F7187
S1135700853031F080E090E005C081E090E002C097
S113571081E090E0CF911F910F910895FF920F9334
S11357201F93CF93DF93C82FD42F152F062FF72E57
S113573088234CF4CF7740E050E0BA0187E30E941D
S11357408E2B823088F5CC3031F00E941A2B0E94C7
S1135750212B892B41F18C2F80640E94CB2A8F2D21
S11357600E94CB2A802F0E94CB2A812F0E94CB2A11
S11357708D2F0E94CB2ACC2311F081E001C085E952
S1135780C83009F487E80E94CB2ACC3019F48FEF93
S11357900E94CB2ACAE08FEF0E94CB2A882324F4EC
S11357A0C150C9F701C08FEFDF91CF911F910F91C5
S11357B0FF900895EF92FF920F931F93CF93DF937F
S11357C000D000D0CDB7DEB78111B8C00E94C72A7F
S11357D08091000181FF03C080910001B0C00E944C
S11357E0BE2A1AE004C08FEF0E94CB2A1150111177
S11357F0FACF40E050E0BA0180E00E948E2B813065
S113580009F07EC084E6809359034AEA51E060E0DF
S113581070E088E00E948E2B813009F04AC00EC0EF
S1135820E02EF12C8FEF0E94CB2AE1E0F0E0EC0FA8
S1135830FD1FEE0DFF1D80830F5F01C0012F04309B
S113584078F38B81813009F05DC08C818A3A09F04C
S11358505BC080915903882349F040E050E060E048
S113586070E489EA0E948E2B8111F3CF8091590351
S1135870882309F44BC040E050E0BA018AE30E9457
S11358808E2B882379F010E048C0E12EF12C8FEFA5
S11358900E94CB2AE1E0F0E0EC0FFD1FEE0DFF1DAE
S11358A080831F5F143088F3898186FF31C01CE038
S11358B034C040E050E0BA0189EA0E948E2B823065
S11358C018F412E009EA02C011E001E080915903E2
S11358D0882341F040E050E0BA01802F0E948E2BD3
S11358E08111F4CF809159038823A1F040E052E064
S11358F060E070E080E10E948E2B81110DC00DC02C
S113590010E00BC010E009C010E007C010E005C0B3
S113591014E003C010E001C010E0109357030E948C
S11359201A2B112331F0809100018E7F80930001A6
S113593002C00E94C72A8091000101C081E00F903B
S11359400F900F900F90DF91CF911F910F91FF90C7
S1135950EF900895811103C080910001089581E0C2
S11359600895FF920F931F93CF93DF93EB0181115F
S113597043C00115110509F441C08091000180FD67
S11359803FC08091570383FD09C0012E19E0220F07
S1135990331F441F551F1A95D1F7102D02301105DE
S11359A028F00F2EF2E1FF2EF02D04C00F2EF1E1AE
S11359B0FF2EF02DBA01A9018F2D0E948E2B81118B
S11359C014C060E072E0CE010E94392B892B21F0D3
S11359D0DE5F01501109A9F782E1F81206C040E028
S11359E050E0BA018CE00E948E2B0E941A2B81E0B9
S11359F0012B39F480E005C084E003C084E001C0D9
S1135A0083E0DF91CF911F910F91FF900895CF9282
S1135A10DF92EF92FF920F931F93CF93DF93EB01EB
S1135A2069017A01811157C00115110509F455C0A6
S1135A308091000180FD53C08091000182FD51C01E
S1135A408091570383FD09C00B2EB9E0CC0CDD1CFB
S1135A50EE1CFF1CBA95D1F7B02D0130110571F47D
S1135A60B701A60188E10E948E2B81112DC06EEF33
S1135A70CE010E94612B892B11F526C0867031F06E
S1135A80A80160E070E087E90E948E2BB701A601AF
S1135A9089E10E948E2B811117C06CEFCE010E9408
S1135AA0612B892B21F0DE5F01501109B1F76DEFF5
S1135AB080E090E00E94612B892B21F005C000E07A
S1135AC010E002C001E010E00E941A2B81E0012BDB
S1135AD049F480E007C084E005C084E003C083E0AB
S1135AE001C082E0DF91CF911F910F91FF90EF9061
S1135AF0DF90CF900895CF92DF92FF920F931F9380
S1135B00CF93DF93CDB7DEB760970FB6F894DEBFBF
S1135B100FBECDBF8A018111A0C18091000180FD1B
S1135B209EC1862F90E08733910508F079C1FC016E
S1135B30EC5CFF4F0C9434330E94212B892B09F029
S1135B4071C111E086C140E050E0BA0189E00E94D1
S1135B508E2B811169C160E170E0CE0101960E9433
S1135B60392B892B09F462C18981829586958695A2
S1135B708370813031F58A85298530E0322F2227E0
S1135B80280F311D88858F7390E0A0E0B0E0DC0120
S1135B9099278827820F931FA11DB11D0196A11D6E
S1135BA0B11D072E7AE0880F991FAA1FBB1F7A9593
S1135BB0D1F7702DF80180839183A283B38310E021
S1135BC048C12E819B85991F9927991F8A852F701B
S1135BD0290F8370880F280F2E5F3985888590E000
S1135BE0880F991F880F991F329536953695337013
S1135BF0AC01430F511D8F81837090E0982F88274B
S1135C00990F990F840F951F0196A0E0B0E030E042
S1135C102950310904C0880F991FAA1FBB1F2A9558
S1135C20D2F7F80180839183A283B38310E011C17A
S1135C308091570382FF35C040E050E0BA018DE8FF
S1135C400E948E2B8111F4C08FEF0E94CB2A60E159
S1135C5070E0CE0101960E94392B892B39F411E0B2
S1135C60F8C08FEF0E94CB2AFA9404C00F2EF0E301
S1135C70FF2EF02DF110F5CF2B8522952F7080E1AA
S1135C8090E0A0E0B0E004C0880F991FAA1FBB1FDA
S1135C902A95D2F7F80180839183A283B38310E01D
S1135CA0D8C040E050E0BA0189E00E948E2B8111F7
S1135CB0C1C060E170E0CE0101960E94392B892BAE
S1135CC009F4BAC08091570381FF1FC08B858F737D
S1135CD090E0880F991F2C8527FD019601962E854B
S1135CE0229526952695237030E02150310902C073
